{
  "_format": "hh-sol-artifact-1",
  "contractName": "EduChainCertificate",
  "sourceName": "contracts/EduChainCertificate.sol",
  "abi": [
    {
      "inputs": [
        {
          "internalType": "address",
          "name": "initialOwner",
          "type": "address"
        }
      ],
      "stateMutability": "nonpayable",
      "type": "constructor"
    },
    {
      "inputs": [
        {
          "internalType": "address",
          "name": "sender",
          "type": "address"
        },
        {
          "internalType": "uint256",
          "name": "tokenId",
          "type": "uint256"
        },
        {
          "internalType": "address",
          "name": "owner",
          "type": "address"
        }
      ],
      "name": "ERC721IncorrectOwner",
      "type": "error"
    },
    {
      "inputs": [
        {
          "internalType": "address",
          "name": "operator",
          "type": "address"
        },
        {
          "internalType": "uint256",
          "name": "tokenId",
          "type": "uint256"
        }
      ],
      "name": "ERC721InsufficientApproval",
      "type": "error"
    },
    {
      "inputs": [
        {
          "internalType": "address",
          "name": "approver",
          "type": "address"
        }
      ],
      "name": "ERC721InvalidApprover",
      "type": "error"
    },
    {
      "inputs": [
        {
          "internalType": "address",
          "name": "operator",
          "type": "address"
        }
      ],
      "name": "ERC721InvalidOperator",
      "type": "error"
    },
    {
      "inputs": [
        {
          "internalType": "address",
          "name": "owner",
          "type": "address"
        }
      ],
      "name": "ERC721InvalidOwner",
      "type": "error"
    },
    {
      "inputs": [
        {
          "internalType": "address",
          "name": "receiver",
          "type": "address"
        }
      ],
      "name": "ERC721InvalidReceiver",
      "type": "error"
    },
    {
      "inputs": [
        {
          "internalType": "address",
          "name": "sender",
          "type": "address"
        }
      ],
      "name": "ERC721InvalidSender",
      "type": "error"
    },
    {
      "inputs": [
        {
          "internalType": "uint256",
          "name": "tokenId",
          "type": "uint256"
        }
      ],
      "name": "ERC721NonexistentToken",
      "type": "error"
    },
    {
      "inputs": [
        {
          "internalType": "address",
          "name": "owner",
          "type": "address"
        }
      ],
      "name": "OwnableInvalidOwner",
      "type": "error"
    },
    {
      "inputs": [
        {
          "internalType": "address",
          "name": "account",
          "type": "address"
        }
      ],
      "name": "OwnableUnauthorizedAccount",
      "type": "error"
    },
    {
      "anonymous": false,
      "inputs": [
        {
          "indexed": true,
          "internalType": "address",
          "name": "owner",
          "type": "address"
        },
        {
          "indexed": true,
          "internalType": "address",
          "name": "approved",
          "type": "address"
        },
        {
          "indexed": true,
          "internalType": "uint256",
          "name": "tokenId",
          "type": "uint256"
        }
      ],
      "name": "Approval",
      "type": "event"
    },
    {
      "anonymous": false,
      "inputs": [
        {
          "indexed": true,
          "internalType": "address",
          "name": "owner",
          "type": "address"
        },
        {
          "indexed": true,
          "internalType": "address",
          "name": "operator",
          "type": "address"
        },
        {
          "indexed": false,
          "internalType": "bool",
          "name": "approved",
          "type": "bool"
        }
      ],
      "name": "ApprovalForAll",
      "type": "event"
    },
    {
      "anonymous": false,
      "inputs": [
        {
          "indexed": false,
          "internalType": "uint256",
          "name": "_fromTokenId",
          "type": "uint256"
        },
        {
          "indexed": false,
          "internalType": "uint256",
          "name": "_toTokenId",
          "type": "uint256"
        }
      ],
      "name": "BatchMetadataUpdate",
      "type": "event"
    },
    {
      "anonymous": false,
      "inputs": [
        {
          "indexed": false,
          "internalType": "uint256",
          "name": "_tokenId",
          "type": "uint256"
        }
      ],
      "name": "MetadataUpdate",
      "type": "event"
    },
    {
      "anonymous": false,
      "inputs": [
        {
          "indexed": true,
          "internalType": "address",
          "name": "previousOwner",
          "type": "address"
        },
        {
          "indexed": true,
          "internalType": "address",
          "name": "newOwner",
          "type": "address"
        }
      ],
      "name": "OwnershipTransferred",
      "type": "event"
    },
    {
      "anonymous": false,
      "inputs": [
        {
          "indexed": true,
          "internalType": "address",
          "name": "from",
          "type": "address"
        },
        {
          "indexed": true,
          "internalType": "address",
          "name": "to",
          "type": "address"
        },
        {
          "indexed": true,
          "internalType": "uint256",
          "name": "tokenId",
          "type": "uint256"
        }
      ],
      "name": "Transfer",
      "type": "event"
    },
    {
      "inputs": [
        {
          "internalType": "address",
          "name": "to",
          "type": "address"
        },
        {
          "internalType": "uint256",
          "name": "tokenId",
          "type": "uint256"
        }
      ],
      "name": "approve",
      "outputs": [],
      "stateMutability": "nonpayable",
      "type": "function"
    },
    {
      "inputs": [
        {
          "internalType": "address",
          "name": "owner",
          "type": "address"
        }
      ],
      "name": "balanceOf",
      "outputs": [
        {
          "internalType": "uint256",
          "name": "",
          "type": "uint256"
        }
      ],
      "stateMutability": "view",
      "type": "function"
    },
    {
      "inputs": [
        {
          "internalType": "uint256",
          "name": "tokenId",
          "type": "uint256"
        }
      ],
      "name": "getApproved",
      "outputs": [
        {
          "internalType": "address",
          "name": "",
          "type": "address"
        }
      ],
      "stateMutability": "view",
      "type": "function"
    },
    {
      "inputs": [
        {
          "internalType": "address",
          "name": "owner",
          "type": "address"
        }
      ],
      "name": "getCertificatesOf",
      "outputs": [
        {
          "internalType": "uint256[]",
          "name": "",
          "type": "uint256[]"
        }
      ],
      "stateMutability": "view",
      "type": "function"
    },
    {
      "inputs": [
        {
          "internalType": "address",
          "name": "owner",
          "type": "address"
        },
        {
          "internalType": "address",
          "name": "operator",
          "type": "address"
        }
      ],
      "name": "isApprovedForAll",
      "outputs": [
        {
          "internalType": "bool",
          "name": "",
          "type": "bool"
        }
      ],
      "stateMutability": "view",
      "type": "function"
    },
    {
      "inputs": [
        {
          "internalType": "address",
          "name": "to",
          "type": "address"
        },
        {
          "internalType": "string",
          "name": "metadataURI",
          "type": "string"
        }
      ],
      "name": "mintCertificate",
      "outputs": [
        {
          "internalType": "uint256",
          "name": "",
          "type": "uint256"
        }
      ],
      "stateMutability": "nonpayable",
      "type": "function"
    },
    {
      "inputs": [],
      "name": "name",
      "outputs": [
        {
          "internalType": "string",
          "name": "",
          "type": "string"
        }
      ],
      "stateMutability": "view",
      "type": "function"
    },
    {
      "inputs": [],
      "name": "nextTokenId",
      "outputs": [
        {
          "internalType": "uint256",
          "name": "",
          "type": "uint256"
        }
      ],
      "stateMutability": "view",
      "type": "function"
    },
    {
      "inputs": [],
      "name": "owner",
      "outputs": [
        {
          "internalType": "address",
          "name": "",
          "type": "address"
        }
      ],
      "stateMutability": "view",
      "type": "function"
    },
    {
      "inputs": [
        {
          "internalType": "uint256",
          "name": "tokenId",
          "type": "uint256"
        }
      ],
      "name": "ownerOf",
      "outputs": [
        {
          "internalType": "address",
          "name": "",
          "type": "address"
        }
      ],
      "stateMutability": "view",
      "type": "function"
    },
    {
      "inputs": [],
      "name": "renounceOwnership",
      "outputs": [],
      "stateMutability": "nonpayable",
      "type": "function"
    },
    {
      "inputs": [
        {
          "internalType": "address",
          "name": "from",
          "type": "address"
        },
        {
          "internalType": "address",
          "name": "to",
          "type": "address"
        },
        {
          "internalType": "uint256",
          "name": "tokenId",
          "type": "uint256"
        }
      ],
      "name": "safeTransferFrom",
      "outputs": [],
      "stateMutability": "nonpayable",
      "type": "function"
    },
    {
      "inputs": [
        {
          "internalType": "address",
          "name": "from",
          "type": "address"
        },
        {
          "internalType": "address",
          "name": "to",
          "type": "address"
        },
        {
          "internalType": "uint256",
          "name": "tokenId",
          "type": "uint256"
        },
        {
          "internalType": "bytes",
          "name": "data",
          "type": "bytes"
        }
      ],
      "name": "safeTransferFrom",
      "outputs": [],
      "stateMutability": "nonpayable",
      "type": "function"
    },
    {
      "inputs": [
        {
          "internalType": "address",
          "name": "operator",
          "type": "address"
        },
        {
          "internalType": "bool",
          "name": "approved",
          "type": "bool"
        }
      ],
      "name": "setApprovalForAll",
      "outputs": [],
      "stateMutability": "nonpayable",
      "type": "function"
    },
    {
      "inputs": [
        {
          "internalType": "bytes4",
          "name": "interfaceId",
          "type": "bytes4"
        }
      ],
      "name": "supportsInterface",
      "outputs": [
        {
          "internalType": "bool",
          "name": "",
          "type": "bool"
        }
      ],
      "stateMutability": "view",
      "type": "function"
    },
    {
      "inputs": [],
      "name": "symbol",
      "outputs": [
        {
          "internalType": "string",
          "name": "",
          "type": "string"
        }
      ],
      "stateMutability": "view",
      "type": "function"
    },
    {
      "inputs": [
        {
          "internalType": "uint256",
          "name": "tokenId",
          "type": "uint256"
        }
      ],
      "name": "tokenURI",
      "outputs": [
        {
          "internalType": "string",
          "name": "",
          "type": "string"
        }
      ],
      "stateMutability": "view",
      "type": "function"
    },
    {
      "inputs": [
        {
          "internalType": "address",
          "name": "from",
          "type": "address"
        },
        {
          "internalType": "address",
          "name": "to",
          "type": "address"
        },
        {
          "internalType": "uint256",
          "name": "tokenId",
          "type": "uint256"
        }
      ],
      "name": "transferFrom",
      "outputs": [],
      "stateMutability": "nonpayable",
      "type": "function"
    },
    {
      "inputs": [
        {
          "internalType": "address",
          "name": "newOwner",
          "type": "address"
        }
      ],
      "name": "transferOwnership",
      "outputs": [],
      "stateMutability": "nonpayable",
      "type": "function"
    }
  ],
  "bytecode": "0x608060405260016008553480156200001657600080fd5b5060405162002ee038038062002ee083398181016040528101906200003c91906200028d565b806040518060400160405280601481526020017f456475436861696e2043657274696669636174650000000000000000000000008152506040518060400160405280600681526020017f45444345525400000000000000000000000000000000000000000000000000008152508160009081620000ba919062000539565b508060019081620000cc919062000539565b505050600073ffffffffffffffffffffffffffffffffffffffff168173ffffffffffffffffffffffffffffffffffffffff1603620001445760006040517f1e4fbdf70000000000000000000000000000000000000000000000000000000081526004016200013b919062000631565b60405180910390fd5b62000155816200015d60201b60201c565b50506200064e565b6000600760009054906101000a900473ffffffffffffffffffffffffffffffffffffffff16905081600760006101000a81548173ffffffffffffffffffffffffffffffffffffffff021916908373ffffffffffffffffffffffffffffffffffffffff1602179055508173ffffffffffffffffffffffffffffffffffffffff168173ffffffffffffffffffffffffffffffffffffffff167f8be0079c531659141344cd1fd0a4f28419497f9722a3daafe3b4186f6b6457e060405160405180910390a35050565b600080fd5b600073ffffffffffffffffffffffffffffffffffffffff82169050919050565b6000620002558262000228565b9050919050565b620002678162000248565b81146200027357600080fd5b50565b60008151905062000287816200025c565b92915050565b600060208284031215620002a657620002a562000223565b5b6000620002b68482850162000276565b91505092915050565b600081519050919050565b7f4e487b7100000000000000000000000000000000000000000000000000000000600052604160045260246000fd5b7f4e487b7100000000000000000000000000000000000000000000000000000000600052602260045260246000fd5b600060028204905060018216806200034157607f821691505b602082108103620003575762000356620002f9565b5b50919050565b60008190508160005260206000209050919050565b60006020601f8301049050919050565b600082821b905092915050565b600060088302620003c17fffffffffffffffffffffffffffffffffffffffffffffffffffffffffffffffff8262000382565b620003cd868362000382565b95508019841693508086168417925050509392505050565b6000819050919050565b6000819050919050565b60006200041a620004146200040e84620003e5565b620003ef565b620003e5565b9050919050565b6000819050919050565b6200043683620003f9565b6200044e620004458262000421565b8484546200038f565b825550505050565b600090565b6200046562000456565b620004728184846200042b565b505050565b5b818110156200049a576200048e6000826200045b565b60018101905062000478565b5050565b601f821115620004e957620004b3816200035d565b620004be8462000372565b81016020851015620004ce578190505b620004e6620004dd8562000372565b83018262000477565b50505b505050565b600082821c905092915050565b60006200050e60001984600802620004ee565b1980831691505092915050565b6000620005298383620004fb565b9150826002028217905092915050565b6200054482620002bf565b67ffffffffffffffff81111562000560576200055f620002ca565b5b6200056c825462000328565b620005798282856200049e565b600060209050601f831160018114620005b157600084156200059c578287015190505b620005a885826200051b565b86555062000618565b601f198416620005c1866200035d565b60005b82811015620005eb57848901518255600182019150602085019450602081019050620005c4565b868310156200060b578489015162000607601f891682620004fb565b8355505b6001600288020188555050505b505050505050565b6200062b8162000248565b82525050565b600060208201905062000648600083018462000620565b92915050565b612882806200065e6000396000f3fe608060405234801561001057600080fd5b50600436106101215760003560e01c806370a08231116100ad578063a22cb46511610071578063a22cb4651461031c578063b88d4fde14610338578063c87b56dd14610354578063e985e9c514610384578063f2fde38b146103b457610121565b806370a0823114610288578063715018a6146102b857806375794a3c146102c25780638da5cb5b146102e057806395d89b41146102fe57610121565b8063095ea7b3116100f4578063095ea7b3146101d457806323b872dd146101f05780633cc0146d1461020c57806342842e0e1461023c5780636352211e1461025857610121565b806301ffc9a71461012657806306fdde03146101565780630712249f14610174578063081812fc146101a4575b600080fd5b610140600480360381019061013b9190611bfa565b6103d0565b60405161014d9190611c42565b60405180910390f35b61015e610431565b60405161016b9190611ced565b60405180910390f35b61018e60048036038101906101899190611ea2565b6104c3565b60405161019b9190611f17565b60405180910390f35b6101be60048036038101906101b99190611f5e565b61056c565b6040516101cb9190611f9a565b60405180910390f35b6101ee60048036038101906101e99190611fb5565b610588565b005b61020a60048036038101906102059190611ff5565b61059e565b005b61022660048036038101906102219190612048565b6106a0565b6040516102339190612133565b60405180910390f35b61025660048036038101906102519190611ff5565b610737565b005b610272600480360381019061026d9190611f5e565b610757565b60405161027f9190611f9a565b60405180910390f35b6102a2600480360381019061029d9190612048565b610769565b6040516102af9190611f17565b60405180910390f35b6102c0610823565b005b6102ca610837565b6040516102d79190611f17565b60405180910390f35b6102e861083d565b6040516102f59190611f9a565b60405180910390f35b610306610867565b6040516103139190611ced565b60405180910390f35b61033660048036038101906103319190612181565b6108f9565b005b610352600480360381019061034d9190612262565b61090f565b005b61036e60048036038101906103699190611f5e565b61092c565b60405161037b9190611ced565b60405180910390f35b61039e600480360381019061039991906122e5565b610a3f565b6040516103ab9190611c42565b60405180910390f35b6103ce60048036038101906103c99190612048565b610ad3565b005b6000634906490660e01b7bffffffffffffffffffffffffffffffffffffffffffffffffffffffff1916827bffffffffffffffffffffffffffffffffffffffffffffffffffffffff1916148061042a575061042982610b59565b5b9050919050565b60606000805461044090612354565b80601f016020809104026020016040519081016040528092919081815260200182805461046c90612354565b80156104b95780601f1061048e576101008083540402835291602001916104b9565b820191906000526020600020905b81548152906001019060200180831161049c57829003601f168201915b5050505050905090565b60006104cd610c3b565b6000600860008154809291906104e2906123b4565b9190505590506104f28482610cc2565b6104fc8184610dbb565b600960008573ffffffffffffffffffffffffffffffffffffffff1673ffffffffffffffffffffffffffffffffffffffff1681526020019081526020016000208190806001815401808255809150506001900390600052602060002001600090919091909150558091505092915050565b600061057782610e17565b5061058182610e9f565b9050919050565b61059a8282610595610edc565b610ee4565b5050565b600073ffffffffffffffffffffffffffffffffffffffff168273ffffffffffffffffffffffffffffffffffffffff16036106105760006040517f64a0ae920000000000000000000000000000000000000000000000000000000081526004016106079190611f9a565b60405180910390fd5b6000610624838361061f610edc565b610ef6565b90508373ffffffffffffffffffffffffffffffffffffffff168173ffffffffffffffffffffffffffffffffffffffff161461069a578382826040517f64283d7b000000000000000000000000000000000000000000000000000000008152600401610691939291906123fc565b60405180910390fd5b50505050565b6060600960008373ffffffffffffffffffffffffffffffffffffffff1673ffffffffffffffffffffffffffffffffffffffff16815260200190815260200160002080548060200260200160405190810160405280929190818152602001828054801561072b57602002820191906000526020600020905b815481526020019060010190808311610717575b50505050509050919050565b6107528383836040518060200160405280600081525061090f565b505050565b600061076282610e17565b9050919050565b60008073ffffffffffffffffffffffffffffffffffffffff168273ffffffffffffffffffffffffffffffffffffffff16036107dc5760006040517f89c62b640000000000000000000000000000000000000000000000000000000081526004016107d39190611f9a565b60405180910390fd5b600360008373ffffffffffffffffffffffffffffffffffffffff1673ffffffffffffffffffffffffffffffffffffffff168152602001908152602001600020549050919050565b61082b610c3b565b6108356000611110565b565b60085481565b6000600760009054906101000a900473ffffffffffffffffffffffffffffffffffffffff16905090565b60606001805461087690612354565b80601f01602080910402602001604051908101604052809291908181526020018280546108a290612354565b80156108ef5780601f106108c4576101008083540402835291602001916108ef565b820191906000526020600020905b8154815290600101906020018083116108d257829003601f168201915b5050505050905090565b61090b610904610edc565b83836111d6565b5050565b61091a84848461059e565b61092684848484611345565b50505050565b606061093782610e17565b50600060066000848152602001908152602001600020805461095890612354565b80601f016020809104026020016040519081016040528092919081815260200182805461098490612354565b80156109d15780601f106109a6576101008083540402835291602001916109d1565b820191906000526020600020905b8154815290600101906020018083116109b457829003601f168201915b5050505050905060006109e26114fc565b905060008151036109f7578192505050610a3a565b600082511115610a2c578082604051602001610a1492919061246f565b60405160208183030381529060405292505050610a3a565b610a3584611513565b925050505b919050565b6000600560008473ffffffffffffffffffffffffffffffffffffffff1673ffffffffffffffffffffffffffffffffffffffff16815260200190815260200160002060008373ffffffffffffffffffffffffffffffffffffffff1673ffffffffffffffffffffffffffffffffffffffff16815260200190815260200160002060009054906101000a900460ff16905092915050565b610adb610c3b565b600073ffffffffffffffffffffffffffffffffffffffff168173ffffffffffffffffffffffffffffffffffffffff1603610b4d5760006040517f1e4fbdf7000000000000000000000000000000000000000000000000000000008152600401610b449190611f9a565b60405180910390fd5b610b5681611110565b50565b60007f80ac58cd000000000000000000000000000000000000000000000000000000007bffffffffffffffffffffffffffffffffffffffffffffffffffffffff1916827bffffffffffffffffffffffffffffffffffffffffffffffffffffffff19161480610c2457507f5b5e139f000000000000000000000000000000000000000000000000000000007bffffffffffffffffffffffffffffffffffffffffffffffffffffffff1916827bffffffffffffffffffffffffffffffffffffffffffffffffffffffff1916145b80610c345750610c338261157c565b5b9050919050565b610c43610edc565b73ffffffffffffffffffffffffffffffffffffffff16610c6161083d565b73ffffffffffffffffffffffffffffffffffffffff1614610cc057610c84610edc565b6040517f118cdaa7000000000000000000000000000000000000000000000000000000008152600401610cb79190611f9a565b60405180910390fd5b565b600073ffffffffffffffffffffffffffffffffffffffff168273ffffffffffffffffffffffffffffffffffffffff1603610d345760006040517f64a0ae92000000000000000000000000000000000000000000000000000000008152600401610d2b9190611f9a565b60405180910390fd5b6000610d4283836000610ef6565b9050600073ffffffffffffffffffffffffffffffffffffffff168173ffffffffffffffffffffffffffffffffffffffff1614610db65760006040517f73c6ac6e000000000000000000000000000000000000000000000000000000008152600401610dad9190611f9a565b60405180910390fd5b505050565b80600660008481526020019081526020016000209081610ddb919061263f565b507ff8e1a15aba9398e019f0b49df1a4fde98ee17ae345cb5f6b5e2c27f5033e8ce782604051610e0b9190611f17565b60405180910390a15050565b600080610e23836115e6565b9050600073ffffffffffffffffffffffffffffffffffffffff168173ffffffffffffffffffffffffffffffffffffffff1603610e9657826040517f7e273289000000000000000000000000000000000000000000000000000000008152600401610e8d9190611f17565b60405180910390fd5b80915050919050565b60006004600083815260200190815260200160002060009054906101000a900473ffffffffffffffffffffffffffffffffffffffff169050919050565b600033905090565b610ef18383836001611623565b505050565b600080610f02846115e6565b9050600073ffffffffffffffffffffffffffffffffffffffff168373ffffffffffffffffffffffffffffffffffffffff1614610f4457610f438184866117e8565b5b600073ffffffffffffffffffffffffffffffffffffffff168173ffffffffffffffffffffffffffffffffffffffff1614610fd557610f86600085600080611623565b6001600360008373ffffffffffffffffffffffffffffffffffffffff1673ffffffffffffffffffffffffffffffffffffffff168152602001908152602001600020600082825403925050819055505b600073ffffffffffffffffffffffffffffffffffffffff168573ffffffffffffffffffffffffffffffffffffffff1614611058576001600360008773ffffffffffffffffffffffffffffffffffffffff1673ffffffffffffffffffffffffffffffffffffffff168152602001908152602001600020600082825401925050819055505b846002600086815260200190815260200160002060006101000a81548173ffffffffffffffffffffffffffffffffffffffff021916908373ffffffffffffffffffffffffffffffffffffffff160217905550838573ffffffffffffffffffffffffffffffffffffffff168273ffffffffffffffffffffffffffffffffffffffff167fddf252ad1be2c89b69c2b068fc378daa952ba7f163c4a11628f55a4df523b3ef60405160405180910390a4809150509392505050565b6000600760009054906101000a900473ffffffffffffffffffffffffffffffffffffffff16905081600760006101000a81548173ffffffffffffffffffffffffffffffffffffffff021916908373ffffffffffffffffffffffffffffffffffffffff1602179055508173ffffffffffffffffffffffffffffffffffffffff168173ffffffffffffffffffffffffffffffffffffffff167f8be0079c531659141344cd1fd0a4f28419497f9722a3daafe3b4186f6b6457e060405160405180910390a35050565b600073ffffffffffffffffffffffffffffffffffffffff168273ffffffffffffffffffffffffffffffffffffffff160361124757816040517f5b08ba1800000000000000000000000000000000000000000000000000000000815260040161123e9190611f9a565b60405180910390fd5b80600560008573ffffffffffffffffffffffffffffffffffffffff1673ffffffffffffffffffffffffffffffffffffffff16815260200190815260200160002060008473ffffffffffffffffffffffffffffffffffffffff1673ffffffffffffffffffffffffffffffffffffffff16815260200190815260200160002060006101000a81548160ff0219169083151502179055508173ffffffffffffffffffffffffffffffffffffffff168373ffffffffffffffffffffffffffffffffffffffff167f17307eab39ab6107e8899845ad3d59bd9653f200f220920489ca2b5937696c31836040516113389190611c42565b60405180910390a3505050565b60008373ffffffffffffffffffffffffffffffffffffffff163b11156114f6578273ffffffffffffffffffffffffffffffffffffffff1663150b7a02611389610edc565b8685856040518563ffffffff1660e01b81526004016113ab9493929190612766565b6020604051808303816000875af19250505080156113e757506040513d601f19601f820116820180604052508101906113e491906127c7565b60015b61146b573d8060008114611417576040519150601f19603f3d011682016040523d82523d6000602084013e61141c565b606091505b50600081510361146357836040517f64a0ae9200000000000000000000000000000000000000000000000000000000815260040161145a9190611f9a565b60405180910390fd5b805181602001fd5b63150b7a0260e01b7bffffffffffffffffffffffffffffffffffffffffffffffffffffffff1916817bffffffffffffffffffffffffffffffffffffffffffffffffffffffff1916146114f457836040517f64a0ae920000000000000000000000000000000000000000000000000000000081526004016114eb9190611f9a565b60405180910390fd5b505b50505050565b606060405180602001604052806000815250905090565b606061151e82610e17565b5060006115296114fc565b905060008151116115495760405180602001604052806000815250611574565b80611553846118ac565b60405160200161156492919061246f565b6040516020818303038152906040525b915050919050565b60007f01ffc9a7000000000000000000000000000000000000000000000000000000007bffffffffffffffffffffffffffffffffffffffffffffffffffffffff1916827bffffffffffffffffffffffffffffffffffffffffffffffffffffffff1916149050919050565b60006002600083815260200190815260200160002060009054906101000a900473ffffffffffffffffffffffffffffffffffffffff169050919050565b808061165c5750600073ffffffffffffffffffffffffffffffffffffffff168273ffffffffffffffffffffffffffffffffffffffff1614155b1561179057600061166c84610e17565b9050600073ffffffffffffffffffffffffffffffffffffffff168373ffffffffffffffffffffffffffffffffffffffff16141580156116d757508273ffffffffffffffffffffffffffffffffffffffff168173ffffffffffffffffffffffffffffffffffffffff1614155b80156116ea57506116e88184610a3f565b155b1561172c57826040517fa9fbf51f0000000000000000000000000000000000000000000000000000000081526004016117239190611f9a565b60405180910390fd5b811561178e57838573ffffffffffffffffffffffffffffffffffffffff168273ffffffffffffffffffffffffffffffffffffffff167f8c5be1e5ebec7d5bd14f71427d1e84f3dd0314c0f7b2291e5b200ac8c7c3b92560405160405180910390a45b505b836004600085815260200190815260200160002060006101000a81548173ffffffffffffffffffffffffffffffffffffffff021916908373ffffffffffffffffffffffffffffffffffffffff16021790555050505050565b6117f383838361197a565b6118a757600073ffffffffffffffffffffffffffffffffffffffff168373ffffffffffffffffffffffffffffffffffffffff160361186857806040517f7e27328900000000000000000000000000000000000000000000000000000000815260040161185f9190611f17565b60405180910390fd5b81816040517f177e802f00000000000000000000000000000000000000000000000000000000815260040161189e9291906127f4565b60405180910390fd5b505050565b6060600060016118bb84611a3b565b01905060008167ffffffffffffffff8111156118da576118d9611d77565b5b6040519080825280601f01601f19166020018201604052801561190c5781602001600182028036833780820191505090505b509050600082602001820190505b60011561196f578080600190039150507f3031323334353637383961626364656600000000000000000000000000000000600a86061a8153600a85816119635761196261281d565b5b0494506000850361191a575b819350505050919050565b60008073ffffffffffffffffffffffffffffffffffffffff168373ffffffffffffffffffffffffffffffffffffffff1614158015611a3257508273ffffffffffffffffffffffffffffffffffffffff168473ffffffffffffffffffffffffffffffffffffffff1614806119f357506119f28484610a3f565b5b80611a3157508273ffffffffffffffffffffffffffffffffffffffff16611a1983610e9f565b73ffffffffffffffffffffffffffffffffffffffff16145b5b90509392505050565b600080600090507a184f03e93ff9f4daa797ed6e38ed64bf6a1f0100000000000000008310611a99577a184f03e93ff9f4daa797ed6e38ed64bf6a1f0100000000000000008381611a8f57611a8e61281d565b5b0492506040810190505b6d04ee2d6d415b85acef81000000008310611ad6576d04ee2d6d415b85acef81000000008381611acc57611acb61281d565b5b0492506020810190505b662386f26fc100008310611b0557662386f26fc100008381611afb57611afa61281d565b5b0492506010810190505b6305f5e1008310611b2e576305f5e1008381611b2457611b2361281d565b5b0492506008810190505b6127108310611b53576127108381611b4957611b4861281d565b5b0492506004810190505b60648310611b765760648381611b6c57611b6b61281d565b5b0492506002810190505b600a8310611b85576001810190505b80915050919050565b6000604051905090565b600080fd5b600080fd5b60007fffffffff0000000000000000000000000000000000000000000000000000000082169050919050565b611bd781611ba2565b8114611be257600080fd5b50565b600081359050611bf481611bce565b92915050565b600060208284031215611c1057611c0f611b98565b5b6000611c1e84828501611be5565b91505092915050565b60008115159050919050565b611c3c81611c27565b82525050565b6000602082019050611c576000830184611c33565b92915050565b600081519050919050565b600082825260208201905092915050565b60005b83811015611c97578082015181840152602081019050611c7c565b60008484015250505050565b6000601f19601f8301169050919050565b6000611cbf82611c5d565b611cc98185611c68565b9350611cd9818560208601611c79565b611ce281611ca3565b840191505092915050565b60006020820190508181036000830152611d078184611cb4565b905092915050565b600073ffffffffffffffffffffffffffffffffffffffff82169050919050565b6000611d3a82611d0f565b9050919050565b611d4a81611d2f565b8114611d5557600080fd5b50565b600081359050611d6781611d41565b92915050565b600080fd5b600080fd5b7f4e487b7100000000000000000000000000000000000000000000000000000000600052604160045260246000fd5b611daf82611ca3565b810181811067ffffffffffffffff82111715611dce57611dcd611d77565b5b80604052505050565b6000611de1611b8e565b9050611ded8282611da6565b919050565b600067ffffffffffffffff821115611e0d57611e0c611d77565b5b611e1682611ca3565b9050602081019050919050565b82818337600083830152505050565b6000611e45611e4084611df2565b611dd7565b905082815260208101848484011115611e6157611e60611d72565b5b611e6c848285611e23565b509392505050565b600082601f830112611e8957611e88611d6d565b5b8135611e99848260208601611e32565b91505092915050565b60008060408385031215611eb957611eb8611b98565b5b6000611ec785828601611d58565b925050602083013567ffffffffffffffff811115611ee857611ee7611b9d565b5b611ef485828601611e74565b9150509250929050565b6000819050919050565b611f1181611efe565b82525050565b6000602082019050611f2c6000830184611f08565b92915050565b611f3b81611efe565b8114611f4657600080fd5b50565b600081359050611f5881611f32565b92915050565b600060208284031215611f7457611f73611b98565b5b6000611f8284828501611f49565b91505092915050565b611f9481611d2f565b82525050565b6000602082019050611faf6000830184611f8b565b92915050565b60008060408385031215611fcc57611fcb611b98565b5b6000611fda85828601611d58565b9250506020611feb85828601611f49565b9150509250929050565b60008060006060848603121561200e5761200d611b98565b5b600061201c86828701611d58565b935050602061202d86828701611d58565b925050604061203e86828701611f49565b9150509250925092565b60006020828403121561205e5761205d611b98565b5b600061206c84828501611d58565b91505092915050565b600081519050919050565b600082825260208201905092915050565b6000819050602082019050919050565b6120aa81611efe565b82525050565b60006120bc83836120a1565b60208301905092915050565b6000602082019050919050565b60006120e082612075565b6120ea8185612080565b93506120f583612091565b8060005b8381101561212657815161210d88826120b0565b9750612118836120c8565b9250506001810190506120f9565b5085935050505092915050565b6000602082019050818103600083015261214d81846120d5565b905092915050565b61215e81611c27565b811461216957600080fd5b50565b60008135905061217b81612155565b92915050565b6000806040838503121561219857612197611b98565b5b60006121a685828601611d58565b92505060206121b78582860161216c565b9150509250929050565b600067ffffffffffffffff8211156121dc576121db611d77565b5b6121e582611ca3565b9050602081019050919050565b6000612205612200846121c1565b611dd7565b90508281526020810184848401111561222157612220611d72565b5b61222c848285611e23565b509392505050565b600082601f83011261224957612248611d6d565b5b81356122598482602086016121f2565b91505092915050565b6000806000806080858703121561227c5761227b611b98565b5b600061228a87828801611d58565b945050602061229b87828801611d58565b93505060406122ac87828801611f49565b925050606085013567ffffffffffffffff8111156122cd576122cc611b9d565b5b6122d987828801612234565b91505092959194509250565b600080604083850312156122fc576122fb611b98565b5b600061230a85828601611d58565b925050602061231b85828601611d58565b9150509250929050565b7f4e487b7100000000000000000000000000000000000000000000000000000000600052602260045260246000fd5b6000600282049050600182168061236c57607f821691505b60208210810361237f5761237e612325565b5b50919050565b7f4e487b7100000000000000000000000000000000000000000000000000000000600052601160045260246000fd5b60006123bf82611efe565b91507fffffffffffffffffffffffffffffffffffffffffffffffffffffffffffffffff82036123f1576123f0612385565b5b600182019050919050565b60006060820190506124116000830186611f8b565b61241e6020830185611f08565b61242b6040830184611f8b565b949350505050565b600081905092915050565b600061244982611c5d565b6124538185612433565b9350612463818560208601611c79565b80840191505092915050565b600061247b828561243e565b9150612487828461243e565b91508190509392505050565b60008190508160005260206000209050919050565b60006020601f8301049050919050565b600082821b905092915050565b6000600883026124f57fffffffffffffffffffffffffffffffffffffffffffffffffffffffffffffffff826124b8565b6124ff86836124b8565b95508019841693508086168417925050509392505050565b6000819050919050565b600061253c61253761253284611efe565b612517565b611efe565b9050919050565b6000819050919050565b61255683612521565b61256a61256282612543565b8484546124c5565b825550505050565b600090565b61257f612572565b61258a81848461254d565b505050565b5b818110156125ae576125a3600082612577565b600181019050612590565b5050565b601f8211156125f3576125c481612493565b6125cd846124a8565b810160208510156125dc578190505b6125f06125e8856124a8565b83018261258f565b50505b505050565b600082821c905092915050565b6000612616600019846008026125f8565b1980831691505092915050565b600061262f8383612605565b9150826002028217905092915050565b61264882611c5d565b67ffffffffffffffff81111561266157612660611d77565b5b61266b8254612354565b6126768282856125b2565b600060209050601f8311600181146126a95760008415612697578287015190505b6126a18582612623565b865550612709565b601f1984166126b786612493565b60005b828110156126df578489015182556001820191506020850194506020810190506126ba565b868310156126fc57848901516126f8601f891682612605565b8355505b6001600288020188555050505b505050505050565b600081519050919050565b600082825260208201905092915050565b600061273882612711565b612742818561271c565b9350612752818560208601611c79565b61275b81611ca3565b840191505092915050565b600060808201905061277b6000830187611f8b565b6127886020830186611f8b565b6127956040830185611f08565b81810360608301526127a7818461272d565b905095945050505050565b6000815190506127c181611bce565b92915050565b6000602082840312156127dd576127dc611b98565b5b60006127eb848285016127b2565b91505092915050565b60006040820190506128096000830185611f8b565b6128166020830184611f08565b9392505050565b7f4e487b7100000000000000000000000000000000000000000000000000000000600052601260045260246000fdfea2646970667358221220c5c7690e7bcd679de5e33ff7c3abab72a0f31de5bf0227d9ab77985325a6023164736f6c63430008140033",
  "linkReferences": {},
  "deployedLinkReferences": {}
}